{
  "contractName": "CertificationService",
  "abi": [
    {
      "inputs": [
        {
          "internalType": "address",
          "name": "",
          "type": "address"
        }
      ],
      "name": "certificates",
      "outputs": [
        {
          "internalType": "address",
          "name": "issuer",
          "type": "address"
        },
        {
          "internalType": "string",
          "name": "data",
          "type": "string"
        }
      ],
      "stateMutability": "view",
      "type": "function",
      "constant": true
    },
    {
      "inputs": [
        {
          "internalType": "string",
          "name": "_data",
          "type": "string"
        },
        {
          "internalType": "address",
          "name": "_owner",
          "type": "address"
        }
      ],
      "name": "createCertificate",
      "outputs": [],
      "stateMutability": "nonpayable",
      "type": "function"
    }
  ],
  "bytecode": "0x608060405234801561001057600080fd5b50610668806100206000396000f3fe608060405234801561001057600080fd5b50600436106100355760003560e01c806216e5261461003a578063b854b0781461006b575b600080fd5b610054600480360381019061004f919061033c565b610087565b604051610062929190610411565b60405180910390f35b61008560048036038101906100809190610576565b610153565b005b60006020528060005260406000206000915090508060000160009054906101000a900473ffffffffffffffffffffffffffffffffffffffff16908060010180546100d090610601565b80601f01602080910402602001604051908101604052809291908181526020018280546100fc90610601565b80156101495780601f1061011e57610100808354040283529160200191610149565b820191906000526020600020905b81548152906001019060200180831161012c57829003601f168201915b5050505050905082565b60405180604001604052803373ffffffffffffffffffffffffffffffffffffffff168152602001838152506000808373ffffffffffffffffffffffffffffffffffffffff1673ffffffffffffffffffffffffffffffffffffffff16815260200190815260200160002060008201518160000160006101000a81548173ffffffffffffffffffffffffffffffffffffffff021916908373ffffffffffffffffffffffffffffffffffffffff160217905550602082015181600101908051906020019061021f929190610227565b509050505050565b82805461023390610601565b90600052602060002090601f016020900481019282610255576000855561029c565b82601f1061026e57805160ff191683800117855561029c565b8280016001018555821561029c579182015b8281111561029b578251825591602001919060010190610280565b5b5090506102a991906102ad565b5090565b5b808211156102c65760008160009055506001016102ae565b5090565b6000604051905090565b600080fd5b600080fd5b600073ffffffffffffffffffffffffffffffffffffffff82169050919050565b6000610309826102de565b9050919050565b610319816102fe565b811461032457600080fd5b50565b60008135905061033681610310565b92915050565b600060208284031215610352576103516102d4565b5b600061036084828501610327565b91505092915050565b610372816102fe565b82525050565b600081519050919050565b600082825260208201905092915050565b60005b838110156103b2578082015181840152602081019050610397565b838111156103c1576000848401525b50505050565b6000601f19601f8301169050919050565b60006103e382610378565b6103ed8185610383565b93506103fd818560208601610394565b610406816103c7565b840191505092915050565b60006040820190506104266000830185610369565b818103602083015261043881846103d8565b90509392505050565b600080fd5b600080fd5b7f4e487b7100000000000000000000000000000000000000000000000000000000600052604160045260246000fd5b610483826103c7565b810181811067ffffffffffffffff821117156104a2576104a161044b565b5b80604052505050565b60006104b56102ca565b90506104c1828261047a565b919050565b600067ffffffffffffffff8211156104e1576104e061044b565b5b6104ea826103c7565b9050602081019050919050565b82818337600083830152505050565b6000610519610514846104c6565b6104ab565b90508281526020810184848401111561053557610534610446565b5b6105408482856104f7565b509392505050565b600082601f83011261055d5761055c610441565b5b813561056d848260208601610506565b91505092915050565b6000806040838503121561058d5761058c6102d4565b5b600083013567ffffffffffffffff8111156105ab576105aa6102d9565b5b6105b785828601610548565b92505060206105c885828601610327565b9150509250929050565b7f4e487b7100000000000000000000000000000000000000000000000000000000600052602260045260246000fd5b6000600282049050600182168061061957607f821691505b60208210810361062c5761062b6105d2565b5b5091905056fea2646970667358221220605a56337a702e4c2311b8ccd17ea74a477e02c68b53ab6ce1447d642cf5e7cc64736f6c634300080e0033",
  "immutableReferences": {},
  "source": "// SPDX-License-Identifier: UNLICENSED\npragma solidity ^0.8.14;\n\ncontract CertificationService {\n\n    struct Certificate {\n        address issuer;\n        string data;\n    }\n\n    mapping(address => Certificate) public certificates;\n\n    function createCertificate(string memory _data, address _owner) external {\n        certificates[_owner] = Certificate(msg.sender, _data);\n    }\n\n}",
  "sourcePath": "/home/ted/Documents/IndividualProj/digitalID/DAPP/contracts/CertificationService.sol",
  "compiler": {
    "name": "solc",
    "version": "0.8.14+commit.80d49f37.Emscripten.clang"
  },
  "schemaVersion": "3.4.7",
  "updatedAt": "2022-05-30T12:35:01.914Z",
  "networkType": "ethereum",
  "devdoc": {
    "kind": "dev",
    "methods": {},
    "version": 1
  },
  "userdoc": {
    "kind": "user",
    "methods": {},
    "version": 1
  }
}